:100000000C9493020C94B0020C94CB020C94B002AA
:100010000C94E5050C94A4050C94B0020C94B00269
:100020000C94B0020C9476050C94B0020C94230549
:100030000C94B0020C94B0020C94B0020C94B00278
:100040000C94B0020C94B0020C94B0020C94B00268
:100050000C94B002CE24BA24EA24BE24C024C224C4
:10006000C624E824CA24CC24C824D624F024D024CE
:10007000F424F8240125FA24FA24FA24FA24FA2490
:10008000FA24FA24FA24FA24E624E424F224D424D8
:10009000F624FC24BC24FA24FA24FA24FA24FA24B0
:1000A000FA24FA24FA24FA24FA24FA24FA24FA2460
:1000B000FA24FA24FA24FA24FA24FA24FA24FA2450
:1000C000FA24FA24FA24FA24FA24D824E024DC249A
:1000D000C424D224EC24FA24FA24FA24FA24FA249C
:1000E000FA24FA24FA24FA24FA24FA24FA24FA2420
:1000F000FA24FA24FA24FA24FA24FA24FA24FA2410
:10010000FA24FA24FA24FA24FA24DA24E224DE2453
:10011000EE2405010906A101050719E029E71500EC
:1001200025019508750181029501750881039505E2
:1001300075010508190129059102950175039103BF
:100140000507190029FF95067508150026FF00818F
:1001500000C00600FF0901A101150026FF00750877
:10016000850195070900B20201850295830900B255
:100170000201C005010980A1018504150125B719F7
:100180000129B7751095018100C0050C0901A10175
:1001900085031501269C0219012A9C027510950100
:1001A0008100C009023B00020100A0FA090400001E
:1001B000010301010009210101000122400007059E
:1001C000810308000A09040100010300000009215D
:1001D000010100012251000705830308000AFEFE09
:1001E000F8F86C6C68686D6D69696B6B6767FEF831
:1001F000F6F6F6FEF8F68E8D8E8D8E8D8E8D8E8DAA
:100200008E8D8E8D8E8D39398E8D396565650101A6
:1002100001010101010101010101010101010000D0
:10022000010100010101FEF8F6FB010204081020A3
:1002300040800000FC001C322123242B3433433B3C
:10024000424B3A31444D152D1B2C3C2A1D22351AA8
:10025000161E26252E363D3E46455A76660D294EFB
:1002600055545B5D5D4C520E41494A580506040CDD
:10027000030B830A010978077C7E7C706C7D7169B1
:100280007A746B7275774A7C7B795A69727A6B7370
:10029000746C757D7071612F001412111F14591147
:1002A000270000373F5E48103A38302820184D1597
:1002B0003B34233221502B404B1C43221D0000F1C4
:1002C000F2370F08101820283038404850575F6D1B
:1002D00000008100820083008A012102230224029F
:1002E0002502260227022A02B500B600B700CD007B
:1002F000E200E900EA00830192019401000000009D
:100300000000000000009190666768696A6B6C6D80
:100310006E6F707172738586464800488E8D0071CD
:1003200072738F006A6B6E6D6546494A4B4C4D4E39
:1003300052504F5154587172737475767778797A38
:100340007B7C7D7E7F808182838485868788898A85
:100350008F00494C4A4D4B4E6A6E65504F52515476
:10036000003953470073656C656374206D6F646575
:1003700000676F6F64206279650020003A006F6E3D
:10038000006F666600746F67676C650065786974F6
:10039000006261636B006D6163726F00626F6F7406
:1003A000206D617070657200737461727400313A0F
:1003B00073656C656374206D6163726F20696E6430
:1003C000657800323A636C656172206D6163726FAB
:1003D00000393A636C65617220616C6C0068656C11
:1003E0006C6F003E3E20006E6F7468696E67006936
:1003F0006E707574206D6163726F20696E646578CC
:10040000202830317E31322C2063616E63656C3A76
:100410002030302C206D7573742032206E756D6223
:1004200065727329203A200073656C6563742069D6
:100430006E646578202830317E31322C2063616E05
:1004400063656C3A20303029203A2000696E70755F
:1004500074206B657920286D6178203234206B65BB
:1004600079732C2073746F70203A207072657373E7
:100470002045534320647572696E6720312073658F
:10048000632900696E76616C6964206E756D6265C2
:10049000722C20696E70757420616761696E2E0020
:1004A000636C6561722E2E2E00666E322F33206CC7
:1004B0006564006E6C00736C0065736320746F205C
:1004C0007E006C617A7920666E00040309041C03C7
:1004D000770069006E006B00650079006C006500B4
:1004E000730073002E006B00720012037000730023
:1004F00032006100760072004700420012011001D4
:1005000000000008A0202D42000101020001454624
:100510004765666700202B2D2E3031323334353657
:1005200037383968000011241FBECFE5D8E0DEBFA0
:10053000CDBF10E0A0E6B0E0EAEDF1E602C0059024
:100540000D92A03AB107D9F716E0A0EAB0E001C0D9
:100550001D92AE31B107E1F70E94BF2C0C94EB3035
:100560000C940000A82FB92F80E090E041E050EA01
:10057000609530E009C02D9182279795879510F0FE
:1005800084279527305EC8F36F5FA8F30895EADFEC
:100590008D939D930895CF93CFB7CF93C395839BAE
:1005A000E9F7839B0EC0839B0CC0839B0AC0839B8F
:1005B00008C0839B06C0C091F505C395C093F5059F
:1005C000A3C0DF93C091F405DD27C450DA4F839BAD
:1005D00002C0DF91E6CF2F930F931F9300B32FEF4D
:1005E00003FB20F94F933F9310B34FEF012703FB19
:1005F00021F93BE031C04E7F012F10B3216028C0AC
:10060000102F4D7F2260000000B329C04B7F246073
:10061000012F000010B32BC010B3477F28602AC001
:100620004F7E00B320612CC04F7D10B320622FC0DD
:100630004F7B00B3206432C0422700B349934FEF91
:100640000000102713FB20F910B31C70C9F1297F9B
:1006500091F2012703FB21F900B3237F89F2315086
:1006600058F1102713FB22F910B3277E79F20127E6
:1006700003FB23F92F7C81F200B3102713FB24F92D
:100680002F7971F200C010B3012703FB25F92F73F6
:1006900059F200C000B3102713FB26F9223040F2B4
:1006A00000C010B3012703FB27F9243028F64F7749
:1006B000206810B30000F9CF10E81ABF002719C056
:1006C0003B503195C31BD04010E81ABF0881033C52
:1006D000F9F00B34E9F02091F2051981110F121392
:1006E000EDCF4A81441F093641F10D3211F0013E30
:1006F00029F70093FA053F914F911F910F912F9188
:10070000DF91CAB7C7FD4ACFCF91CFBFCF91189520
:100710002091FA05222379F31091F8051123C1F5F0
:100720003430C2F13093F8052093F3051091F405AD
:100730003BE0311B3093F4052DC00091F8050130EA
:100740003CF50AE54F7049F430919D0034FD24C01A
:1007500000939D00CBEDD5E023C0433049F03091AC
:10076000E60534FD19C00093E605C7EED5E018C0D4
:100770003091120634FD10C000931206C3E1D6E09A
:100780000FC02795A8F45150A9F4220F0000F9CF0B
:100790004AE503C042ED01C0432FC4E1D0E032E09E
:1007A00011B31C60939A11BB02B320E41CE05F9369
:1007B000012756E002BB279520F4515021F4220F67
:1007C000F9CF012756E000003B5A02BBD0F2279533
:1007D00028F4515029F4220F0000F9CF012756E0E8
:1007E000279502BB20F4515021F4220FF9CF0127A5
:1007F00056E02991332302BB21F6037F1091F905BE
:10080000110FC651D04002BB11F01093F20510E851
:100810001ABF086011B3137F402F437F5F9100C060
:1008200000C002BB11BB42BB66CFA89AA99A86B78B
:10083000846086BF1092A1001092A0000895BC01B0
:100840000898099880EE9EE20E94F82E603130F000
:10085000862F90E0409795958795682F60B9089509
:1008600086B78F70806A86BF089586B78F70806D57
:1008700086BF0895FC01108205C080818F5F808350
:10088000803A18F406B607FEF8CF089583B986B704
:100890008F70806886BF0895CF92DF92EF92FF92AB
:1008A0000F931F93DF93CF930F92CDB7DEB7182F1F
:1008B000062F6A0186B78E7F86BF86B78F70806AE3
:1008C00086BF7E010894E11CF11CC7010E943A0416
:1008D0008981803A68F51E7F13B986B78F7080686A
:1008E00086BFC7010E943A048981803A08F581B128
:1008F000883181F091E014C0F60181916F0183B9D4
:1009000086B78F70806886BF8F2D912F0E943A0422
:10091000015003C0C701FE2C192F002369F790E096
:1009200086B78F70806D86BF86B7816086BF01C035
:1009300091E0892F0F90CF91DF911F910F91FF9040
:10094000EF90DF90CF90089583B7887F826083BF58
:1009500012BE89B7816089BF109276051092770523
:10096000109278051092790508958EB5887F83607E
:100970008EBD1DBC1CBC89B7846089BF089585B538
:10098000887F846085BD14BC89B7806489BF10925C
:100990007E0510927F0510928005109281050895C2
:1009A00093B7987F982B93BF08959EB5987F982B07
:1009B0009EBD089595B5987F982B95BD0895883074
:1009C00040F4E82FF0E0EE0FFF1FEE55FF4F71836C
:1009D00060830895883040F4E82FF0E0EE0FFF1FA9
:1009E000EE55FF4F11821082089510927E051092ED
:1009F0007F051092800510928105089520917E0553
:100A000030917F054091800550918105B901CA015F
:100A100008958FB58D7F8FBD8FB581608FBD19BC57
:100A200018BC08958FB580628FBD8FB58F7E8FBD46
:100A300008958FB58F7D8FBD8FB58F7E8FBD089543
:100A400099BD88BD08951F920F920FB60F92112481
:100A50002F933F934F935F936F937F938F939F93C6
:100A6000AF93BF93EF93FF938091760590917705B5
:100A7000A0917805B09179050196A11DB11D8093D3
:100A8000760590937705A0937805B09379058091CA
:100A90007A0590917B05A0917C05B0917D0501962A
:100AA000A11DB11D80937A0590937B05A0937C05D1
:100AB000B0937D058091A2009091A300892B29F02D
:100AC000E091A200F091A3000995FF91EF91BF91F1
:100AD000AF919F918F917F916F915F914F913F91D6
:100AE0002F910F900FBE0F901F9018951F920F928D
:100AF0000FB60F9211242F933F934F935F936F93F1
:100B00007F938F939F93AF93BF93EF93FF937894CB
:100B10008091A4009091A500892B29F0E091A40078
:100B2000F091A5000995FF91EF91BF91AF919F9131
:100B30008F917F916F915F914F913F912F910F9086
:100B40000FBE0F901F9018951F920F920FB60F9225
:100B500011242F933F934F935F936F937F938F93C2
:100B60009F93AF93BF93EF93FF93789480917E050B
:100B700090917F05A0918005B09181050196A11DFE
:100B8000B11D80937E0590937F05A0938005B0935F
:100B900081058091AC009091AD00892B29F0E09106
:100BA000AC00F091AD000995FF91EF91BF91AF912D
:100BB0009F918F917F916F915F914F913F912F9175
:100BC0000F900FBE0F901F9018951F920F920FB6A7
:100BD0000F9211242F933F934F935F936F937F93C3
:100BE0008F939F93AF93BF93EF93FF9378948091EC
:100BF000AE009091AF00892B29F0E091AE00F0910A
:100C0000AF000995FF91EF91BF91AF919F918F91A7
:100C10007F916F915F914F913F912F910F900FBEF8
:100C20000F901F901895982FFA01D9018091CB0051
:100C30008923E081882341F0E92379F4662311F4C4
:100C400085E007C084E005C0E92339F0662319F484
:100C500083E08C93089582E08C930895662361F07D
:100C6000813011F4909A0895823011F4919A089588
:100C7000843069F4969A0895813011F4909808951B
:100C8000823011F491980895843009F4969808956B
:100C9000882309F457C0809361008F3F11F48CE0E2
:100CA00003C0893118F088E18093610020916100D0
:100CB0008CEC95E1622F70E00E940C2F709339014B
:100CC0006093380132E06B3F730734F08AEF92E0B3
:100CD00090933901809338018EE898E0622F70E09C
:100CE0000E940C2F70933B0160933A0122E06B3F0E
:100CF000720734F08AEF92E090933B0180933A01BF
:100D000080919F00882311F0833029F480913A016B
:100D100090913B0104C080913801909139019093EA
:100D20003601809335012091350130913601809153
:100D30003301909134012817390720F4309334019E
:100D4000209333010895CF93DF93FC0180916100DC
:100D500080838091B500818380913301909134012B
:100D600063E070E00E94F82E6283EF012396ACE30B
:100D7000B1E083E00D9009928150E1F7EF012696F2
:100D8000AFE3B1E083E00D9009928150E1F7EF010C
:100D90002996A2E4B1E083E00D9009928150E1F739
:100DA0008EE191E09F01245F3F4FE901DC0143E0C8
:100DB0000D9009924150E1F703962D5F3F4F41E0BE
:100DC0008333940791F78091B20081A3EF01A2963B
:100DD000A5E4B1E083E00D9009928150E1F78091A4
:100DE000BB0085A3DF91CF9108950F931F93CF93FD
:100DF000DF9300913A0110913B0180913301909172
:100E000034018017910738F0C0913801D091390131
:100E1000C017D10721F48FEF8093D50018C0BE0111
:100E2000681B790B80E090E02DEC30E040E050E072
:100E30000E94CD2EC01BD10B9E01442737FD40954B
:100E4000542F0E941F2F2E5C3F4F2093D500DF911F
:100E5000CF911F910F9108951092B400089580933F
:100E6000CB0008958091CB0008952091600030E080
:100E7000AC01429FC001439F900D529F900D1124E1
:100E80006FEF70E00E94F82E8091D500482F50E05F
:100E90009B014617570708F49A01C90108958F92DC
:100EA0009F92AF92BF92CF92DF92EF92FF920F93F9
:100EB0001F93CF93DF93EC0129819880822F90E0DC
:100EC000890D911D8A80880D911D6091330170916B
:100ED00034016817790760F57B0100E010E05C01E0
:100EE000CC24DD2430E040E050E0C801B7010E948E
:100EF000CD2EA60195010E941F2F2983692D70E038
:100F000080E090E0A80197010E94CD2EA6019501F6
:100F10000E941F2F2883682D70E080E090E0A801D8
:100F200097010E94CD2EA60195010E941F2F2A83B2
:100F3000DF91CF911F910F91FF90EF90DF90CF90B5
:100F4000BF90AF909F908F900895DC015091610009
:100F50004091C70030E01FC02C91822F840F873052
:100F600008F0875090E0FC01EE0FFF1FE80FF91F1B
:100F7000E25EFE4F8181882381F48081882369F4B9
:100F80008281882351F4822F8F5F8C93873010F0F9
:100F900026502C933F5F3517F8F20895FC01DB01D2
:100FA0008081682F70E04C91242F30E0C9010296B7
:100FB000861797071CF44E5F4C93089522503040DB
:100FC0006217730714F442504C9308950E94200551
:100FD00008959091BA00913029F41092BC001092BB
:100FE000BD000895923029F48FEF90E00E943507FC
:100FF0001BC0892F83508230A8F483E08093BE0009
:10100000943019F481E08093BE008091BE009FEF80
:10101000899FC00111246CE070E00E940C2F609346
:10102000BF00089580E090E00E942005089580911F
:10103000BA00823011F40E94E90708950E94F50673
:101040008091B5008250833018F482E08093C6000E
:101050000E9417088091B70084608093B7000895BC
:101060008130A1F4809160008E31A1F1895180938B
:1010700060008E3118F48EE1809360000E941708A2
:101080008091B70082608093B70020C08230F1F475
:1010900080913301909134018536910518F482E3F3
:1010A00090E002C0845690409093340180933301C5
:1010B0008091330190913401C29730F482E390E043
:1010C00090933401809333010E941E081092B9005E
:1010D0001092B80008958130A9F4809160008F3F8C
:1010E00071F190E049968F3F910511F00CF08FEF70
:1010F000809360000E9417088091B70082608093FF
:10110000B70019C08230B9F4809133019091340155
:101110008C599F4F90933401809333012091350176
:10112000309136012817390720F430933401209389
:1011300033010E941E081092B9001092B800089561
:101140000F931F93DF93CF9300D00F92CDB7DEB7ED
:1011500069837A838B83CE0101960E944F07909119
:1011600049018A81981751F4909148018981981713
:1011700029F490914A018B81981769F1A8E4B1E0B4
:10118000FE01319683E001900D928150E1F790913C
:10119000610026ED30E083E0989FB0011124AB019F
:1011A000420F531F8E010F5F1F4F09C0D901F80175
:1011B00083E001900D928150E1F72D5F3F4F24179E
:1011C0003507A1F76093370180EB46ED50E00E94B0
:1011D0004C04109237010F900F900F90CF91DF9138
:1011E0001F910F9108951092D7001092D60010927F
:1011F000D800109249011092480110924A011092B1
:10120000D3001092D2001092D4009091610026ED8C
:1012100030E083E0989FB0011124AB01420F531FCF
:101220000AC0D901E2EDF0E083E001900D92815017
:10123000E1F72D5F3F4F2417350799F7609337018A
:1012400080EB46ED50E00E944C0410923701089567
:1012500090989198969880E090E00E94200594984C
:101260000E94F308089581E08093B60080E090E04A
:101270000E94200594980E94F30808950E94C025BA
:10128000813069F40E94BD2560E0811161E081E058
:101290004CEC50E02AEC30E00E94130607C080912D
:1012A000CB0080FF02C0909A01C090988091CB0043
:1012B00081FF02C0919A01C091980E94C02582309E
:1012C00069F40E94BD2560E0811161E084E04CEC8E
:1012D00050E02AEC30E00E94130607C08091CB005A
:1012E00082FF02C0969A01C096988091CB008093AD
:1012F000CC0008952091CA00222309F442C08091B5
:10130000D0009091D10001969093D1008093D000AD
:1013100085369105D4F1253011F0233029F40E944F
:10132000C0258130F1F422C0243011F0223041F484
:101330000E94C025813011F4909819C0969817C06A
:101340000E94C025813029F40E94BD25882371F4B4
:101350000EC00E94C025823031F40E94BD25882332
:1013600031F0969A04C08091CB0080FD909A109243
:10137000D1001092D0008091CA0081508093CA00A1
:1013800008951092D1001092D00008950E94B504E3
:101390000E9412058091BA00823011F40E94E90780
:1013A000089580E00E94D50489B78B7F89BF80E0D3
:1013B00090E00E94200594980E941905089580915C
:1013C0009F00882311F0833049F48091B500882371
:1013D00019F40E94C60902C00E94D1098091B5008B
:1013E000813039F40E94F5061092C0001092C100BD
:1013F00037C0823061F40E94F506A2EDB0E0ECE364
:10140000F1E083E001900D928150E1F71BC0833041
:1014100061F40E94F506A2EDB0E0EFE3F1E083E0B5
:1014200001900D928150E1F70DC08430A1F40E942B
:10143000F506A2EDB0E0E2E4F1E083E001900D9268
:101440008150E1F76091D2007091D3008091D40077
:101450000E94A00805C00E94F3088FEF8093D5007A
:101460000E94170808951092B6000E943E090E943B
:10147000E9070E94DF0908951092B6000E94E9076B
:101480000E94DF0908950F931F93082F122F0E94C7
:10149000BC1D882309F073C08091B600882309F031
:1014A0006EC0112309F458C02091BA00233008F10E
:1014B00084EF91E09093C3008093C2008091BE00BE
:1014C0008C3030F4233011F48F5F05C0882329F06D
:1014D000243019F481508093BE008091BE009FEFAC
:1014E000899FC00111246CE070E00E94F82E609387
:1014F000BF008091B500882309F441C0053F09F47D
:101500003EC08091B200813081F4A6EDB0E0E5E408
:10151000F1E083E001900D928150E1F76091D600F7
:101520007091D7008091D80011C0823041F5609150
:10153000D20060956093D6007091D300709570933F
:10154000D7008091D40080958093D8000E94A00895
:1015500081E08093C60013C08091C600813049F4B9
:101560006091D2007091D3008091D4000E94A008B5
:1015700004C0823011F40E94DF091092C6001F914E
:101580000F9108951092B7001092B30089E090E097
:101590000E94A530809360008BE090E00E94A5300F
:1015A0008F708093BA008F3011F41092BA008BE0E4
:1015B00090E00E94A53082958F708093B5008F30A7
:1015C00011F41092B5008CE391E06AE871E043E019
:1015D00050E00E9495308FE391E06DE871E043E0C8
:1015E00050E00E94953082E491E060E971E043E0D0
:1015F00050E00E9495308EE191E065E771E045E1B1
:1016000050E00E94953085E090E00E94A5308093E4
:10161000BB0082E090E00E94A53090E08F3F9105F2
:1016200019F42DEE30E005C09C01220F331F280F66
:10163000391F309334012093330184E090E00E94FD
:10164000A5300E94480683E090E00E94A5308F708C
:101650008093B2008F3011F41092B20085E491E0D3
:1016600065EE73E043E050E00E9495300E94F5067D
:101670000E94E9070E94DF0908958093B500853034
:1016800010F01092B500662329F41092C6000E9453
:10169000DF0903C082E08093C6008091B7008160BB
:1016A0008093B70008951F93182F0E94BC1D8823B4
:1016B00001F5113089F48091BA008F5F8093BA00F0
:1016C000853011F41092BA000E94E9078091B700AA
:1016D00081608093B70009C0123039F48091B50061
:1016E0008F5F6091B2000E943D0B1092B900109282
:1016F000B8001F9108950F931F93082F162F0E9473
:10170000E91C112359F0093349F4823001F1803288
:10171000F1F0813069F0803159F002C00D3F11F4D1
:1017200081E016C0013FB9F4813011F0803179F4C5
:101730008091B2008F5F8093B200833011F41092D9
:10174000B2008091B30081608093B3001DC082E03D
:101750000E94530B19C00A3F51F4823011F08032BD
:1017600011F482E001C081E00E946B080DC0093FC6
:1017700011F081E00AC0823011F0803211F482E071
:1017800001C081E00E94300880E01F910F91089510
:10179000CF93DF93EC0189818F3119F41092CD0042
:1017A000D8C0803109F041C04091CD00842F8150D4
:1017B000833038F5242F30E0C9010197FC01EE0F8A
:1017C000FF1FE80FF91FEE0FFF1FE25EFE4FDE0165
:1017D000129683E00D9001928150E1F7C901880FC4
:1017E000991F0197FC01EE0FFF1FE80FF91FE25E42
:1017F000FE4FDE01159683E00D9001928150E1F7D6
:1018000010C0443071F4A0E3B1E0FE01329683E0F1
:1018100001900D928150E1F78091B700806880932C
:10182000B7004F5F4093CD0094C0813169F4ACE3C1
:10183000B1E0FE01329683E001900D928150E1F714
:101840008091B70080610EC0823189F4AFE3B1E0CE
:10185000FE01329683E001900D928150E1F7809174
:10186000B70080628093B7000E94DF0972C08331A5
:1018700069F4A2E4B1E0FE01329683E001900D929A
:101880008150E1F78091B7008064ECCF813A69F430
:10189000A5E4B1E0FE01329683E001900D92815003
:1018A000E1F78091B300826043C0803229F48A81DD
:1018B00060E00E943D0B4DC0803419F58A8123E021
:1018C000829FC00111249093340180933301892BAE
:1018D00031F483E090E090933401809333012091C0
:1018E00035013091360180913301909134012817F0
:1018F000390720F430933401209333010E941E08ED
:10190000B3CF813239F48A818093B2008091B300E1
:1019100081600EC0833279F48A818093BB0010927B
:10192000C0001092C1001092C7008091B300846083
:101930008093B3000EC0803361F40E94F3088A8163
:101940000E9448060E94F5068091B7008860809347
:10195000B7001092B9001092B800DF91CF910895AE
:101960008091B4008823B1F481E08093B40088E0D2
:101970000E9409058091B500882329F080919F007D
:101980008150823018F40E94C60902C00E94D10919
:101990000E94C20A089581B3836581BB82B38C7AA9
:1019A00082BB0E94150480E991E00E941F04089503
:1019B000CF93DF93EC010E94C025813029F40E946F
:1019C000BD25882339F004C08091CB0080FF02C080
:1019D000909801C0909A8091CB0081FF02C09198AD
:1019E00001C0919ACE010E94AF230E94C025813090
:1019F00029F40E94BD25882339F004C08091CB00D2
:101A000080FF02C0909A01C090988091CB0081FF26
:101A100002C0919A01C09198DF91CF9108950E94E0
:101A20008B258823A1F481E0809362000895909132
:101A30006200913011F4919801C0919A1092CF00F8
:101A40001092CE0081E098279093620008958091D3
:101A5000CE009091CF0001969093CF008093CE005E
:101A60008558934024F70895CF92DF92EF92FF922A
:101A70000F931F938091B400882309F40FC30E9431
:101A8000BC1D882309F00AC30E940F0D0E947A0929
:101A90002091B700222329F48091B300882309F410
:101AA000B2C08091B8009091B90001969093B900AE
:101AB0008093B800885B9B4009F0A5C01092B900E4
:101AC0001092B80020FF0CC06091B5006295607F55
:101AD0008091BA008F70682B8BE090E00E94BD303F
:101AE0008091B700869580FF06C089E090E0609104
:101AF00060000E94BD308091B7008695869580FF7A
:101B00000CC0809133019091340163E070E00E9439
:101B1000F82E82E090E00E94BD308091B70086955B
:101B20008695869580FF0AC00E94E9070E94DF091A
:101B300084E090E0609161000E94BD308091B70028
:101B400082958F7080FF08C08CE391E06AE871E0B5
:101B500043E050E00E94AD308091B70082958695B9
:101B6000877080FF08C08FE391E06DE871E043E08B
:101B700050E00E94AD308091B700829586958695A1
:101B8000837080FF08C082E491E060E971E043E087
:101B900050E00E94AD308091B70087FF08C08EE111
:101BA00091E065E771E045E150E00E94AD30809141
:101BB000B3008695869580FF06C085E090E0609131
:101BC000BB000E94BD308091B30080FF07C06091D0
:101BD000B2006F7083E090E00E94BD308091B3004E
:101BE000869580FF08C085E491E065EE73E043E0F0
:101BF00050E00E94AD301092B7001092B30082E323
:101C000090E00E94D80C8091B600882309F046C26B
:101C10002091BA00213009F046C08091C400909113
:101C2000C50001969093C5008093C400089709F001
:101C300089C01092C5001092C4008091BD00882315
:101C400031F48091BC0090E00E9435070AC08230D8
:101C500061F42091BC008FEF90E0821B91090E94FB
:101C6000350790E00E94200509C0813011F08330D3
:101C700029F48091BC008F5F8093BC008091BC00F0
:101C80008F3F69F41092BC008091BD008F5F8093FC
:101C9000BD00843008F456C01092BD0053C08F5F61
:101CA0008093BC004FC0822F8350823008F04AC01E
:101CB0008091C2009091C3001816190634F4019760
:101CC0009093C3008093C20035C0233029F48091E3
:101CD000BF00882339F426C0243039F58091BF0035
:101CE0008F3F19F18091BC008F5F8093BC008830DA
:101CF00008F11092BC008091BF00233011F4815094
:101D000001C08F5F8093BF002091BF008FEF90E0F4
:101D1000821B91096BEE7FEF0E940C2F645F609332
:101D2000BE0008C01092BE0003C08CE08093BE00CD
:101D30001092BC008091BF0090E00E94350790E0B7
:101D40000E9420058091C600813009F4A7C18091CE
:101D5000C8009091C90001969093C9008093C80073
:101D600088970CF49BC11092C9001092C800809112
:101D7000B500813009F092C18091BB00813011F52E
:101D80008091C0008F5F8093C000815009F086C1B0
:101D90008091C70090E0FC01EE0FFF1FE80FF91FD4
:101DA000A2EDB0E0E25EFE4F83E001900D92815023
:101DB000E1F76091D2007091D3008091D4000E942D
:101DC000A00863C1823009F073C09091C100809176
:101DD0006100981708F04CC010E003E036C0812F76
:101DE00090E0211778F4FC01EE0FFF1FE80FF91FB8
:101DF000EA52FF4FA2EDB0E083E00D9001928150D6
:101E0000E1F71DC0DC01AA0FBB1FA80FB91F80910D
:101E1000C70090E0FC01EE0FFF1FE80FF91FAA5268
:101E2000BF4FE25EFE4F83E001900D928150E1F7DB
:101E3000109FC00111248A529F4F0E944F0780912A
:101E400037018D5F809337011F5F80916100209182
:101E5000C100181720F22F5F2093C10080EB609122
:101E6000370146ED50E00E944C041092370115C036
:101E70008091C70090E0FC01EE0FFF1FE80FF91FF3
:101E8000A2EDB0E0E25EFE4F83E001900D92815042
:101E9000E1F782ED90E00E944F078091C0008F5FD4
:101EA0008093C000882309F0F9C01092C100EDC0F2
:101EB000833009F047C08091C0008F5F8093C000DD
:101EC000815009F0EBC01092C10010E003E035C072
:101ED00081EC90E00E94A5078091C100873018F046
:101EE00087508093C100812F90E0DC01AA0FBB1FB7
:101EF000A80FB91F8091C10090E0FC01EE0FFF1FF9
:101F0000E80FF91FAA52BF4FE25EFE4F83E0019037
:101F10000D928150E1F7109FC00111248A529F4F0A
:101F20000E944F07809137018D5F80933701809128
:101F3000C1008F5F8093C1001F5F809161001817FF
:101F400038F268C0843009F06FC01092C100DD24FF
:101F5000E3E0CE2E4AC081EC90E00E94A50790916C
:101F6000C7008091C100980F973008F09750892FD3
:101F700090E02D2D30E07C01EE0CFF1CE80EF91EE8
:101F80008901000F111F020F131FB80169527F4F03
:101F9000C701815E9E4F0E94CE07B8016A527F4FF3
:101FA000C701825E9E4F0E94CE0708521F4FC70195
:101FB000805E9E4FB8010E94CE07DC9CC0011124B8
:101FC0008A529F4F0E944F07809137018D5F809307
:101FD00037019091C100892F8F5F8093C1008730B6
:101FE00018F096509093C100D39480916100D81658
:101FF00008F4B1CF8091C0008E5F8093C0008D3F08
:1020000048F08091C7008F5F8093C700873010F041
:102010001092C70080EB6091370146ED50E00E94BE
:102020004C04109237013AC08091C70013E0819FA1
:10203000C0011124815E9E4F63ED70E00E94CE07C7
:102040008091C700819FC0011124825E9E4F62ED86
:1020500070E00E94CE078091C700819FC0011124CB
:10206000805E9E4F64ED70E00E94CE076091D200CA
:102070007091D3008091D4000E94A0088091C0008C
:102080008F5F8093C0008F3F49F48091C7008F5FBE
:102090008093C700873010F01092C7001F910F91F6
:1020A000FF90EF90DF90CF900895FC018381813203
:1020B00061F08232D9F0823081F583EA91E0909329
:1020C000F7058093F6058BE308958281882319F044
:1020D000813019F503C085EB91E002C08EEC91E0F0
:1020E0009093F7058093F60589E0089584819581A2
:1020F000009719F0019789F408C082E191E090936C
:10210000F7058093F60580E4089582E591E09093C9
:10211000F7058093F60581E5089580E00895FC01B8
:1021200080914C01813041F4613081F580810E94C1
:10213000202B10924C012AC0823019F5818188230E
:1021400069F4683001F582818F3F29F481E090E0E5
:1021500060E00E94CE300E94671218C0813039F4CE
:102160008281813009F080E00E94AB250FC0803968
:1021700019F40E94D1090AC0813929F40E94C609C4
:1021800005C0843019F4CF010E94C80B81E0089586
:102190000F931F93CF93DF93EC010E94ED2888816A
:1021A0008076803209F0DFC02981213009F090C0AB
:1021B0008A819B8132E08030930741F482E895E088
:1021C0009093F7058093F60588E0CEC033E0823027
:1021D000930749F48E819F818538910509F0C3C02A
:1021E00020934D01C0C08150934009F0BCC02E81A6
:1021F0003F812436310559F40EE411E0C8010E94F4
:10220000A3061093F7050093F60584E6ADC0C90157
:1022100089579040049790F540E050E0A8E7B0E07F
:1022200021C08E819F818A9FF0018B9FF00D9A9F24
:10223000F00D1124E85BF24DC901840F951FE80FE2
:10224000F91F8491E62FE20FF0E0E25BFE4F8083FE
:102250002F5F3F4F2830310521F7485F5F4F4837E8
:10226000510521F0642F20E030E0DBCF8EE491E0D7
:102270009093F7058093F60588E776C0C901885AE0
:1022800090400C9718F520E030E048EA50E08E814D
:102290009F81849FF001859FF00D949FF00D112484
:1022A000E054F640E20FF31FE491D901A25BBE4F68
:1022B000EC932F5F3F4F283A310549F78EE491E0C8
:1022C0009093F7058093F60588EA4EC0822F4CC0A4
:1022D000293051F58A819B8132E08030930739F4AF
:1022E0008C819D81892B09F03EC081E019C023E0DB
:1022F0008230920789F480914D01813039F48FE169
:102300008983CE010E94C80B84E001C083E08093E2
:102310004C0110924D0106C08150934021F582E09E
:1023200080934C018FEF20C0223019F480914B0133
:1023300014C02A3031F40E94F1288B8180934B0124
:1023400012C0233031F48B81882369F4109263002A
:102350000BC02B3041F4809163008093F6051092FE
:10236000F70581E001C080E0DF91CF911F910F91CF
:102370000895813011F090E006C090E0613009F0DE
:1023800091E081E09827892F08958FEF87BB88BB64
:102390001ABA94B39B7B94BB8F988BBB85B38C6F1D
:1023A00085BB979A089521E030E002C0220F331FC9
:1023B0008A95E2F727BB209528BB84E18A95F1F73F
:1023C0000895282F883058F449B381E090E002C086
:1023D000880F991F2A95E2F74095482318C08E3040
:1023E00078F443B38FE090E0821B910921E030E064
:1023F00002C0220F331F8A95E2F74095422307C09F
:102400008E3011F040E003C040B340954078842FF7
:1024100008955F926F927F928F929F92AF92BF9238
:10242000CF92DF92EF92FF920F931F93CF93DF93A0
:10243000782EC92E5B0100E010E091E0892E912CEE
:1024400084E1582E662463949401002E02C0220F6A
:10245000331F0A94E2F727BB822F809588BB852D16
:102460008A95F1F7472D5C2DCA01EC01FF24E22E7D
:10247000D22ED0948F2D0E94E111282F98818E2D7D
:10248000892319F0222329F008C0222331F09E2944
:1024900001C09D219883F5016082F3942196FFE0AD
:1024A000FF1641F70F5F1F4F0830110569F6DF91E6
:1024B000CF911F910F91FF90EF90DF90CF90BF9041
:1024C000AF909F908F907F906F905F9008950E9443
:1024D00028098B9A28E088E190E00FB6F894A89537
:1024E00081BD0FBE21BDFFCF8093F701F89480918D
:1024F0008B058F7E80938B0580918B058860809300
:102500008B0578940895F89480918B058B7F809348
:102510008B0578948091F601089580918B0590E069
:1025200096958795969587958170089580918B05EE
:1025300090E034E0969587953A95E1F7817008959B
:102540008FEC82BF80918A05833000F58B98939A37
:1025500080918B0580FF23C0829BA3C080918A0558
:10256000813031F0813040F0823009F0F6C006C091
:10257000839902C08DE096C082E094C080918B0563
:1025800083FFEBC093988B9A84E28CC080918A057C
:102590008A3108F079C080918B0580FD08C0809158
:1025A0008B05816080938B058A98929A0895829B0F
:1025B00076C080918A05873140F4803118F58D30DE
:1025C00061F08F3009F055C00CC08831E1F18831DD
:1025D00058F1893109F04DC049C080918B058D7F3C
:1025E0004DC080918B058B7F80938B05839B05C0AD
:1025F00080E88093F60181E014C01092F9011092F6
:10260000F60137C08091F60186958093F601839B91
:1026100030C08091F60180688093F6018091F901C5
:102620008F5F8093F90125C0839B05C08091F901DC
:102630008F5F8093F9018091F90180FD1AC080912C
:102640008B05826010C0839905C080918B058260E4
:1026500080938B0580918B0581FD0BC093988B9A9D
:1026600080918B05846080938B0503C08B98939A2F
:102670006CC092988A9A80918B058E7F80938B058F
:1026800080918A058F5F0EC080918A058F3208F095
:1026900064C080918B0580FF10C0829906C08B9822
:1026A000939A81E080938A05089580918B058E7FAF
:1026B00080938B0592988A9A089580918B0581600A
:1026C00080938B058A98929A80918A058C3228F49F
:1026D000853280F48432E1F507C08D3299F18D3274
:1026E000E8F08E32A9F531C08091F7018093F801AE
:1026F0001092F9018091F80180FF08C08B98939A9D
:102700008091F9018F5F8093F90102C093988B9AB1
:102710008091F80186958093F8011AC08091F901A3
:1027200080FF03C093988B9A02C08B98939A8091F4
:102730008B05877F80938B0580918B0580618093CB
:102740008B0506C08B98939A03C010928A05089552
:1027500080918A058F5F80938A05089510928A057B
:1027600081E180938B058A98929A8B98939A0E9424
:10277000A40482E00E94D00480E060EA72E10E943A
:10278000DF048FEC82BF0895282F8F3F31F4109221
:10279000FD0181E08093020208958E3F21F08D3F7C
:1027A00029F41092FD011092020208958091020214
:1027B000882351F08091FD01E82FF0E0E053FD4FB8
:1027C00020838F5F8093FD018091FE019091FF0136
:1027D000019668EC70E00E940C2FFC019093FF01C1
:1027E0008093FE0180910002909101028E179F0755
:1027F00059F4009719F487EC90E001C00197909389
:10280000FF018093FE010895E95FFD4F2083089545
:1028100040E020910002309101028091FE019091F0
:10282000FF012817390709F041E0842F0895FF922E
:102830000F931F93F62E882309F4A3C00E94FE1B5A
:10284000182F8D3B08F09DC0A82FB0E0FD01EE5C75
:10285000FD4F0491FF2009F463C08093CF021092D2
:10286000DA021092DB021092DC021092DD0210926A
:102870008E05A252BD4F8C91F82E81FF2DC01634CB
:1028800019F01834F1F50EC08FEF0E94C41380EEDA
:102890000E94C41382E10E94C41380EE0E94C413FC
:1028A0008CE727C08DEF0E94C41381EE0E94C413F1
:1028B00084E10E94C41387E70E94C41381EE0E9442
:1028C000C41380EF0E94C41384E10E94C41380EFFC
:1028D0000E94C41387E710C082FF02C0802F0CC083
:1028E0008FEF0E94C413F0FE03C080EE0E94C41359
:1028F000802F0E94C4138EEF0E94C4138CEF0E949D
:10290000C413F5FE40C08091FC018823E1F581E00D
:102910008093FC01173411F40E94E91C8BEF2EC048
:102920008091CF02811711F41092FD01E12FF0E0A8
:10293000E252FD4F808181FF13C0163421F580EEF5
:102940000E94C41380EF0E94C4138CE70E94C4133A
:1029500080EE0E94C41380EF0E94C41382E10BC07A
:1029600082FD11C080FF03C080EE0E94C41380EF7F
:102970000E94C413802F0E94C4138CEF0E94C413C2
:1029800002C080E001C081E01F910F91FF90089587
:1029900080917305882339F481E0809373050E9448
:1029A000A72D0E94912308951F93162F8E3F11F09B
:1029B00080938D050E94741210938E051F910895C7
:1029C0008F929F92AF92BF92CF92DF92EF92FF923F
:1029D0000F931F93CF93DF9388E080938E050E941F
:1029E000AE13EEEDF2E0119223E0EE37F207D9F7E5
:1029F00028E133E006C0FC01E252FD4F8081826095
:102A00008083F901849190E02F5F3F4F009799F701
:102A10002BE133E006C0FC01E252FD4F808184606F
:102A20008083F901849190E02F5F3F4F009799F7E1
:102A30002FE133E006C0FC01E252FD4F8081886047
:102A40008083F901849190E02F5F3F4F009799F7C1
:102A500024E233E006C0FC01E252FD4F8081816038
:102A60008083F901849190E02F5F3F4F009799F7A1
:102A700022E533E006C0FC01E252FD4F8081806117
:102A80008083F901849190E02F5F3F4F009799F781
:102A900021E633E006C0FC01E252FD4F80818062F6
:102AA0008083F901849190E02F5F3F4F009799F761
:102AB00010920102109200021092FF011092FE018A
:102AC0001092FD01109203021092DA021092DB02C2
:102AD0001092DC021092DD0286E090E00E94A530A8
:102AE0008F3F09F481E06091FB01662319F4809324
:102AF000FB0106C0681721F086E090E00E94CE300E
:102B000084E690E00E94B51986E690E00E94942C3D
:102B10000E94FE18789499249394A5E0AA2EB12CD3
:102B2000C12CD12CF6E98F2ECCEFD0E080919F0004
:102B3000882309F5809173058823E9F48091710554
:102B4000909172050196909372058093710501979B
:102B5000895E934084F081E080939F00DF91CF9164
:102B60001F910F91FF90EF90DF90CF90BF90AF90AB
:102B70009F908F90089580918B0581FF07C0F894F6
:102B800080918B058D7F80938B0578940E948D12A8
:102B9000882309F404C180910402909105028C3FBE
:102BA000910561F020910002309101028091FE01B7
:102BB0009091FF012817390709F0F1C00E94831294
:102BC00080937E031092FC011092060260918E05A4
:102BD000623009F46BC0633018F4613039F460C0BE
:102BE000663009F4C8C0673009F47BC0833F79F1CF
:102BF000843F70F48E3ED1F08F3E20F48D3E09F07C
:102C0000CAC022C0803FE9F0823F09F0C4C010C0B2
:102C1000863F39F1873F20F4843F09F0BCC01AC0D9
:102C20008E3F61F08F3F09F0B6C005C08EEEB5C093
:102C30008AEF64E0B2C08AEF68E0AFC080918D0592
:102C4000ACC08AEF62E0A9C08AEF66E0A6C08AEF56
:102C500067E0A3C08AEF60E00E94D4140E94C81409
:102C60009EC090926800A0926900B0926A00C092E3
:102C70006B00D0926C001092010210920002109230
:102C8000FF011092FE011092FD01109203021092BA
:102C9000DA021092DB021092DC021092DD027BC09D
:102CA000853F09F478C08AEF61E077C01092010295
:102CB000109200021092FF011092FE011092FD018D
:102CC000109203021092DA021092DB021092DC02E0
:102CD0001092DD02882311F060E001C063E08AEF0A
:102CE0005CC090E09C0120763070E5E0359527953A
:102CF000EA95E1F7209368009C01277030703093CB
:102D0000800320937F038871907073E09595879579
:102D10007A95E1F7909382038093810341E050E03C
:102D200020E030E004C0440F551F2F5F3F4F2817AD
:102D30003907CCF340938503509386033093840383
:102D40002093830380917F03909180039C01429F95
:102D5000C001439F900D529F900D1124AA2797FD0B
:102D6000A095BA2F8093690090936A00A0936B009E
:102D7000B0936C0010C00E94C81480917E03982FFD
:102D800080E090FD84E091FD816092FD82600E9470
:102D90002F070E943E098AEF60E00E94D4140E942F
:102DA0009612882309F4C2CE80910602882309F086
:102DB000BDCE80918E05843009F40DC1853030F48C
:102DC000882371F0833009F0B1CE03C1883009F453
:102DD00007C18C3009F480C0853009F0A7CEFEC051
:102DE00020910002309101028091FE019091FF013B
:102DF0002817390711F40E94351B0E94B025209135
:102E00000002309101028091FE019091FF0128178C
:102E1000390711F480E00EC0C901019668EC70E03A
:102E20000E940C2FFC019093010280930002E95F45
:102E3000FD4F8081282F30E030930502209304025B
:102E40002B3F310539F4D0930502C09304029092D0
:102E500006026CCE2C3F310509F468CE232B21F0FD
:102E600060E00E94D4145EC08091FD01882309F4C3
:102E70005DCE2091DA023091DB024091DC0250916C
:102E8000DD022F5F3F4F4F4F5F4F2093DA023093A9
:102E9000DB024093DC025093DD0280916800889D44
:102EA000C00111248A519F4FAA2797FDA095BA2FE0
:102EB000281739074A075B070CF438CE1092DA025C
:102EC0001092DB021092DC021092DD0210920302DB
:102ED0008CE080938E052ACE80910302882311F422
:102EE0000E94351B0E94B0258091FD018823C1F00E
:102EF00020910002309101028091FE019091FF012A
:102F00002817390769F48091DA029091DB02A091C9
:102F1000DC02B091DD020197A105B10561F40FC09B
:102F200010928E051092DA021092DB021092DC02EF
:102F30001092DD02FBCD809103028823A9F09091CD
:102F40000302E92FF0E0E053FD4F80819F5F9093F3
:102F500003026CE00E94D4146091FD018091030291
:102F60000E94EC2E90930302E090DA02F090DB02D4
:102F70000091DC021091DD020894E11CF11C011D9E
:102F8000111D6091690070916A0080916B009091B1
:102F90006C002AE030E040E050E00E94CD2E6D5FF2
:102FA0007F4F8F4F9F4F2091FB0130E040E050E07A
:102FB0000E94CD2E9B01AC01C801B7010E94412F98
:102FC0006093DA027093DB028093DC029093DD025F
:102FD000ADCD82E01AC08BEA65E018C083E815C069
:102FE00010920102109200021092FF011092FE0155
:102FF0001092FD01109203021092DA021092DB028D
:103000001092DC021092DD028AEA60E00E94D41481
:103010008DCD80916D00089580916E00089580910E
:103020008903089589E993E008958AE893E0089573
:1030300081E080936D00E9E9F3E08081882319F055
:1030400010926D0005C0319683E0E83AF807A9F7C1
:1030500081E080936E00EAE8F3E08081882319F034
:1030600010926E0005C0319683E0E939F807A9F7A0
:1030700080916D00882341F40E94DF1C882331F485
:1030800080918903882311F4109288030895AAE897
:10309000B3E0E9E9F3E08FE001900D928150E1F7B0
:1030A0000895DF93CF930F92CDB7DEB7198289E9E8
:1030B00093E0BE016F5F7F4F0E94091289818823D0
:1030C00019F01092A90307C08091A903843618F45F
:1030D0008F5F8093A90320E09091A9038091A803BA
:1030E000981709F421E0822F0F90CF91DF91089576
:1030F0000E94511808950E94BD25882329F00E943E
:10310000BD25809387030895109287030895CF9279
:10311000DF92FF920F931F93CF93DF9380918803E9
:10312000882339F00E947B1810928903109188033C
:103130005CC009E913E0FF2481E0C82ED12CF8011E
:103140008081882309F444C0C0E0D0E096010C2EB1
:1031500002C0220F331F0A94E2F7F8018081822314
:1031600091F1809187036F2D4C2F0E94541D0E9476
:10317000F01B8E3F99F0883F11F412E010C0863F9B
:1031800011F413E00CC08B3FF1F48091870382307F
:10319000D1F481E08093890310E027C011E00E9400
:1031A0006A28882351F080916E00882321F4809151
:1031B00089038823C1F4109388030E947B1881E05F
:1031C0008093890312C02196C830D10509F0BECF83
:1031D000F3940F5F1F4FFFE0FF1609F0B0CF0E947E
:1031E0007B181092890310918703812FDF91CF9173
:1031F0001F910F91FF90DF90CF9008958FE0EAE844
:10320000F3E0DF01982F1D929A95E9F7E9E9F3E0E1
:10321000DF011D928A95E9F708950E94C51187E0A4
:103220008093A8038AE08093A903089586E084BD73
:1032300080918F05909190050196909390058093D1
:103240008F05089598EA899FF0011124E050F8490C
:10325000E49180E0E150EE3F08F481E00895809130
:10326000AA0308951092AA0380E00E94DA04089548
:103270000F931F931092900510928F051092AC033C
:103280001092AB0308EA2091AD033091AE03283AC7
:1032900031051CF00E94321930C0E0916F00E09FB0
:1032A000A0011124C9010196240F351F205038496F
:1032B000F901249101969093AE038093AD03019799
:1032C000480F591F40505849FA011491822F8150DC
:1032D0008E3F78F4822F0E943824912F9F7799F2A5
:1032E0008BE4989FC00111249093AC038093AB03AF
:1032F00004C00E9432190E947C241F910F910895EE
:103300008091AA03882369F020918F053091900560
:103310008091AB039091AC032817390714F00E94F9
:1033200038190895982F8091AA03882391F481E099
:103330008093AA0390936F001092AC031092AB039A
:103340001092AE031092AD030E94381985B58360C8
:1033500085BD08950E94BF0485E066E179E10E9481
:10336000DF0480E00E94DA0408959093B203809312
:10337000B10308950F931F93182F062F662329F08A
:103380000E94FE1B61E00E94F81CE091B103F091E5
:10339000B2030190F081E02D812F602F09951F91DC
:1033A0000F910895DF92EF92FF920F931F93182FC2
:1033B000062FE42ED22E642F422F202F0E9411269A
:1033C000F82E002329F0112319F081E00E94A41C9B
:1033D0000E94111E882339F0812F6E2D4D2D202F34
:1033E0000E944E2116C0FF20A1F0002329F0812F5A
:1033F0000E94E61E882369F4812F602F0E94E42733
:10340000E091B103F091B2030190F081E02D602FC3
:1034100009951F910F91FF90EF90DF900895EF9223
:10342000FF920F931F93F82E142FE22E6417C9F00A
:103430000E94FE1B612F0E94F81C8F2D612F0E949D
:10344000C3258F2D0E94DF25882359F0112319F001
:103450008F2D61E002C08F2D60E04E2D202F0E9445
:10346000D2191F910F91FF90EF9008952F923F92E4
:103470004F925F926F927F928F929F92AF92BF9284
:10348000CF92DF92EF92FF920F931F93DF93CF9330
:1034900000D00F92CDB7DEB70E947818882309F4C8
:1034A000CEC00E948718882E0E9412183C010E94EC
:1034B00015188983492E0E946A28882329F0809153
:1034C000B003882309F05AC08091AF03881509F42E
:1034D00055C0EE24FF2491E0292E312C3FC05A80A4
:1034E0008091AF03652D4B2D0E94541D082F882D10
:1034F0006A814B2D0E94541DA82E0817F1F0802FD1
:103500000E94A61D8823C9F4EA81FB81E60DF71D00
:103510001081F6018081892139F0802F61E040E03F
:103520002B2D0A810E940F1A192139F08A2D60E093
:1035300041E02B2D052D0E940F1A8A819B81019657
:103540009B838A830894C11CD11C0F9741F6089471
:10355000E11CF11C98E0E916F10481F0BE2CC101D8
:103560000E2C02C0880F991F0A94E2F7982E298129
:10357000342DC9016C011B821A82B1CF8092AF0336
:103580000E940F188093B0030E941218182F092F61
:103590000E9415186C01212F302FC9017C01BB241A
:1035A00081E0682E712CF6018081882321F4F701D7
:1035B00080818823A9F144245524942CC301042C30
:1035C00002C0880F991F0A94E2F7F60110811823B0
:1035D000F70100810823882D6B2D442D0E94541D76
:1035E000A82E0E948B25882349F0101791F0002304
:1035F000B9F08B2D642D0E948E2512C060E0111150
:1036000061E040E0011141E08A2D292D0B2D0E943F
:103610000F1A0894411C511CF8E04F16510469F62A
:10362000B3940894C11CD11C0894E11CF11C8FE0D8
:10363000B81609F0B8CF0E9447180E9418180F90CA
:103640000F900F90CF91DF911F910F91FF90EF900E
:10365000DF90CF90BF90AF909F908F907F906F90B2
:103660005F904F903F902F9008950F931F930E946B
:103670001125882349F10E947F24882329F50E947F
:103680005425092F813051F4E091B103F091B20338
:103690000190F081E02D892F61E015C0892F8756B8
:1036A000883040F40E94E91C182F802F0E94B51D1D
:1036B000182351F4E091B103F091B2030190F0812D
:1036C000E02D802F60E009950E94361A1F910F911E
:1036D0000895982F8091B40380FF0FC0993611F49C
:1036E0009AE60BC09A3611F499E607C09D3611F49C
:1036F0009EE603C09E3609F49DE6892F089580E07A
:103700000E94DF1C882319F01092B50308950E94CF
:10371000E91C982F8091B3039817A1F09C3231F0E7
:10372000903E21F0983611F0943A41F41092B9038A
:103730001092B80382E08093B50302C01092B503E3
:103740009093B3034091B5034423B1F18091B80342
:103750009091B90301969093B9038093B803209197
:10376000B6033091B7032817390734F54230E1F436
:1037700082E390E00E94D80C8091B40380FF04C0E3
:103780008E7F8093B40310C081608093B40384EF74
:1037900091E02CE231E0F9013197F1F70197D9F787
:1037A00084E690E00E94D80C88E090E06091B40339
:1037B0000E94CE301092B503089588E090E00E94F8
:1037C000A5308093B4038F3F11F41092B40388E8BE
:1037D00093E10E94892C9093B7038093B6030895D8
:1037E000E82F865D883140F4F0E0E85FFE4FE49119
:1037F0008E2F0E94511DE82F8E2F0895982F8091B3
:10380000BA03882321F0892F0E94F01B982F892F5B
:103810000895282F865D8831A8F4822F90E0865D78
:103820009040FC01E25FFD4FE491EE2321F0822FF6
:103830000E94F01B06C08A509E4FFC0184910E949A
:10384000511D282F822F08951F93982F865D662380
:1038500081F18831A8F48091BB038F5F8093BB0313
:103860008091BC03882309F58091BD038823E9F486
:103870009093BE0381E08093BC031092BA0362C0B0
:103880008091BE03882339F081E08093BA03809150
:10389000BD038F5F55C08091BC03882309F052C0DF
:1038A0008091BD038F5F8093BD0381E08093BA0355
:1038B00049C0883108F03FC08091BB03882319F0CC
:1038C00081508093BB031091BE03112369F1809155
:1038D000BA03882349F5812F865D883148F4E12FAA
:1038E000F0E0E05EFE4FE4918E2F0E94511D182FF4
:1038F000812F0E943824812F0E9438241092BE0309
:103900001092C0031092BF030E942F1E882361F003
:10391000812F60E040E021E00E944E21812F60E095
:1039200040E020E00E944E218091BB03882351F4A7
:103930001092BC0307C08091BD03882319F0815009
:103940008093BD031F9108951F93182F9091BE037C
:103950009923E9F08091BA038823C9F0892F0E9446
:10396000F01B612F0E94BA190E942F1E882349F074
:103970008091BE030E94F01B60E040E021E00E94C5
:103980004E211092BE031092C0031092BF031F91EC
:1039900008958091BE03882389F08091BF039091A0
:1039A000C00301969093C0038093BF03855F91404D
:1039B00028F081E08093BA030E94A41C0895863009
:1039C00010F080E00895E82FF0E0EF53FC4F808185
:1039D00008958091C70308951092C8031092C703F9
:1039E00086E0E1ECF3E0DF011D928A95E9F70895A6
:1039F0000F931F93082F8756662301F1883038F400
:103A00001091C703802F0E94B51D182B20C08091F4
:103A1000C803863080F50D3B70F581EC93E0602F94
:103A20000E94E0238F5F9F4F31F58091C803E82FFC
:103A3000F0E0EF53FC4F00838F5F1BC0883050F4E1
:103A40001091C703802F0E94B51D809518231093F5
:103A5000C70311C081EC93E0602F0E94E023BC01FA
:103A600097FD09C081EC93E00E94FA238091C8037E
:103A700081508093C8031F910F91089598E7899F03
:103A8000F0011124E050FA4970E083E0660F771FDF
:103A90008A95E1F7E60FF71FE40FF11DE4918E2FF1
:103AA00008950E94691B0895FF920F931F93182F8A
:103AB000062FF42E0E94111E882379F10E942F1EDA
:103AC000602F70E04F2D50E08823B9F0E8E71E9F8B
:103AD000F0011124E050FA49A3E0660F771FAA9580
:103AE000E1F7E60FF71FE40FF51F1491812F0E94F5
:103AF000211E882321F110E022C0E8E71E9FF0017B
:103B00001124E050FA4933E0660F771F3A95E1F748
:103B1000E60FF71FE40FF51F11C0E8E71E9FF00145
:103B20001124E050FA49802F90E023E0880F991F7C
:103B30002A95E1F7E80FF91FEF0DF11D1491812F80
:103B40000E94691B1F910F91FF900895982FE6E244
:103B5000F2E08491981711F481E00895319682E0A3
:103B6000EA32F807B1F780E00895E82FF0E0ED536E
:103B7000FE4FE4918E2F08958091C903089580919E
:103B8000C903882329F481E08093C9030E9428098E
:103B900008958091C9038823C9F48091CA03909144
:103BA000CB0301969093CB038093CA038053954730
:103BB00068F01092CB031092CA038091CC038F5F00
:103BC0008093CC038A3011F40E94BF1D0895809128
:103BD000C903882321F01092C9030E94330A10926E
:103BE000CB031092CA031092CC0308952091E903ED
:103BF000E22FF0E0EE0FFF1FEF51FC4F9183808327
:103C00002F5F2093E90308958093DB03089580914B
:103C1000D703817008958091D70383608093D70381
:103C200008958091D703827008958091D9030895F3
:103C300081E08093D90308951092D7031092DC039A
:103C4000089590E08D5B883108F491E0892F089504
:103C500090E0895C8C3008F491E0892F089590E021
:103C60008091DB038B3009F491E0892F08958091D6
:103C7000D303089580E3EAEAF5E0DF01982F1D926F
:103C80009A95E9F71092DA05E2E9F5E0DF011D9275
:103C90008A95E9F71092D203089588E20E943824A9
:103CA00088E20E94382408951F93182F0E943A1E1C
:103CB000109391058BE08093DB038091D7038360A1
:103CC0008093D70381E08093D30384EF91E00E9437
:103CD000D80C88EE93E02CE231E0F9013197F1F74E
:103CE0000197D9F784EF91E00E94D80C1F910895B5
:103CF0008091D70381608093D70382E390E00E9494
:103D0000D80C84EF91E02CE231E0F9013197F1F722
:103D10000197D9F782E390E00E94D80C84EF91E0FC
:103D20002CE231E0F9013197F1F70197D9F784E6F8
:103D300090E00E94D80C0895809191058C3078F421
:103D400060E3869FB00111246B557E4F8AEA95E0AF
:103D500040E350E00E94AD308FEF809391050895CD
:103D60000E949C1E8FEF809391051092DB031092AE
:103D7000D3031092D7031092DC0388EE93E00E94E5
:103D8000D80C08950F931F93CF93DF93982F8C3007
:103D9000C0F480E3989FC0011124EC01CB55DE4FA5
:103DA0008C010B521E4FCE010E94A530982F8150DE
:103DB0008E3F18F4892F0E9438242196C017D1070E
:103DC00091F7DF91CF911F910F9108950F931F935A
:103DD000182F8091D70380FD30C0012F0D5B083173
:103DE00060F50E9411258823F9F4193C90F0195CC4
:103DF00080E3189FC00111248B559E4F0E94A5306F
:103E000081508E3FE0F40E942225812F0E94C21E25
:103E100016C0802F0E942219882389F00E94222533
:103E2000802F0E9492190BC00E947924882329F0C8
:103E30000E944F250E947C2402C080E001C081E0E6
:103E40001F910F9108950F931F93FC0180810E9491
:103E50008E248C01882319F088E60E943824812F53
:103E60000E943824812F0E943824002319F088E60C
:103E70000E9438241F910F910895CF92DF92EF9204
:103E8000FF920F931F93DF93CF930F92CDB7DEB7BF
:103E90008C01009711F52FC000D000D000D0EDB7F5
:103EA000FEB73196ADB7BEB71296FC92EE9211975F
:103EB000D382C282992787FD9095958384830E943F
:103EC00013308DB79EB706960FB6F8949EBF0FBEFF
:103ED0008DBFC7010E94231F08C07E010894E11C0A
:103EE000F11C40E7C42E40E0D42EF8010F5F1F4FB5
:103EF0008491882389F60F90CF91DF911F910F91C4
:103F0000FF90EF90DF90CF9008950E943D1F0E9498
:103F10004D1E089580EA94E00E94851F81E0809301
:103F2000D1038CE08093DC031092DB0308958DEDC8
:103F300093E00E94851F0895AF92BF92CF92DF92C7
:103F4000FF920F931F93DF93CF930F92CDB7DEB7FE
:103F50008C01FF246E010894C11CD11C50E7A52ED2
:103F600050E0B52E25C000D000D000D0EDB7FEB790
:103F70003196ADB7BEB71296DC92CE921197B3824E
:103F8000A282800F911FDC018C91992787FD90956B
:103F9000958384830E9413308DB79EB706960FB623
:103FA000F8949EBF0FBE8DBFC6010E94231FF394DD
:103FB0008F2D90E0F80101900020E9F73197E01B88
:103FC000F10B8E179F0778F20F90CF91DF911F9121
:103FD0000F91FF90DF90CF90BF90AF9008950F9317
:103FE0001F938B010E949C1FC8010E943D1F1F91BF
:103FF0000F9108950F931F9386E993E00E943D1F50
:104000000AE713E0C8010E943D1F809191058F5F70
:104010000E940325B8010E94EF1F80EA94E00E94ED
:10402000851F81E08093D1038DE08093DC031092A3
:10403000DB031F910F9108950F931F930E944D1E54
:1040400086E993E00E94851F8EEA93E00E94851F17
:1040500083EC93E00E943D1F0E944D1E83E00E946E
:1040600003250CE713E0B8010E94EF1F8CE893E0F2
:104070000E94851F86E00E940325B8010E94EF1F61
:1040800081E993E00E94851F81ED93E00E94851FE6
:1040900087E08093DB031F910F9108951F930E9487
:1040A0004D1E85E693E00E94851F81E00E94032556
:1040B0006CE773E00E94EF1F86E993E00E94851F82
:1040C00010E01AC08091EB038F5F810F0E940325DF
:1040D0006CE773E00E94EF1FE12FF0E0EE0FFF1F8F
:1040E000EF51FC4F0190F081E02D0190F081E02D27
:1040F00009950E944D1E1F5F8091E903181710F368
:1041000081E08093D1038EE08093DC031092DB0387
:104110001F91089581E08093D1038091DB038B3060
:1041200001F18C3038F48730C0F1893078F0893073
:10413000A1F50FC0843621F1853618F48D3069F56C
:104140000DC08E3641F1883741F510C083EE93E003
:1041500002C08FEE93E00E943D1F1FC088E294E0F2
:10416000FACF8CE494E00E94851F17C08CE993E09D
:104170000E94851F1092DB0381E00E94AB250DC0D9
:104180001092D7031092DC0381E793E00E94851F11
:104190001092DB0302C00E944E208091DB03882333
:1041A00049F088EE93E02CE231E0F9013197F1F724
:1041B0000197D9F708958091D303882319F00E94BD
:1041C000B01E08950E949C1E87E08093DB030E942E
:1041D0004D1E0E948A2008951F93CF93DF93C0E065
:1041E000D0E010E380919105819FC00111248B558F
:1041F0009E4F8C0F9D1F60E00E94BD302196C03302
:10420000D10581F787E08093DB030E948A20DF914C
:10421000CF911F910895CF93DF93C5EAD1E0CE01EE
:1042200060E00E94BD30219683E0C53ED807B9F713
:1042300087E08093DB030E948A20DF91CF9108956D
:1042400083E0EDEDF3E0DF011D928A95E9F710922E
:10425000E0031092DA030E944E2008950F931F93FB
:1042600087E00E9403250CE713E0B8010E94EF1FCE
:104270008CE893E00E94851F89E00E940325B80125
:104280000E94EF1F8CE993E00E94851F88E08093D5
:10429000DB030E948A201F910F910895EF92FF92F5
:1042A0000F931F93CF93DF93982FF62EE42E122FA8
:1042B0008091D103882309F09FC1892F0E94FE1BA2
:1042C000082F8091DB038B3009F086C10D3B08F08D
:1042D00093C18091D003882371F01092CF03109284
:1042E000D003802F0E943824E091DA05F0E0E755F2
:1042F000FA4F108230C0112371F08091D2038831BF
:1043000008F07AC18F5F8093D20382E995E0602F35
:104310000E942C240FC082E995E0602F0E94E023C8
:10432000BC018FEF6F3F780709F466C182E995E021
:104330000E94FA238091DA05E82FF0E0E655FA4F63
:1043400000838F5F8093DA05802F0E94382480914C
:10435000DA05803318F00E94DB204EC1112351F0A2
:10436000093241F481E08093CF031092CE03109282
:10437000CD0342C11092CF031092D0033DC1CA3089
:10438000D10508F039C1E091E003F0E0E352FC4FC1
:10439000C0838C2F0E9403250E949C1F0E944D1EEB
:1043A0009091DD038091DB038830B9F5913029F4D9
:1043B0009093DA030E941C20FFC0973009F445C097
:1043C000993051F49093DA0388E78093DB031092DD
:1043D000D7031092DC03F0C0E92FF0E03197809111
:1043E000EB03E81BF1098091E90390E0E817F90776
:1043F0000CF0E2C083E68093DA03E093EA03F0E096
:10440000EE0FFF1FEF51FC4F0190F081E02D028075
:10441000F381E02D099587E013C0873009F0CCC007
:10442000963019F48EE68093DB038091DA038130B5
:10443000B9F4913011F489E003C0923021F48DE099
:104440008093DB03B9C0933011F484E6F9CF99303F
:1044500009F0B2C08CE08093DB030E948A1FACC0DD
:10446000833609F0A9C0E091EA03F0E0EE0FFF1FE8
:10447000EF51FC4F0190F081E02D0480F581E02D9B
:10448000892F602F4F2D2E2D00E0099595C0923079
:1044900099F0CA30D10508F0AFC08091E003E82F51
:1044A000F0E0E352FC4FC0838F5F8093E0038C2FDA
:1044B0000E9403250E949C1F2A9728F08091DB030D
:1044C000823009F099C08091DB03893021F08D3072
:1044D00009F07FC03EC08091E003823081F5909169
:1044E000DD038AE0989F900111248091DE03280F5C
:1044F000311DC90101970C9750F4822F8150809390
:1045000091058BE08093DB030E943A1E0CC0232BA5
:1045100021F487E08093DB0306C00E944D1E83E8F0
:1045200094E00E943D1F83E0EDEDF3E0DF011D927A
:104530008A95E9F71092E0030E944D1E4AC088EE6A
:1045400093E02CE231E0F9013197F1F70197D9F7C7
:1045500053C08091E003823091F59091DD038AE0B1
:10456000989F900111248091DE03280F311DC9010D
:1045700001970C9760F4822F81508093910587E01A
:104580008093DB030E944D1E0E94FA1F0EC0232B56
:1045900031F487E08093DB030E944D1E06C00E9429
:1045A0004D1E83E894E00E94851F83E0EDEDF3E06B
:1045B000DF011D928A95E9F71092E0030AC088EEA8
:1045C00093E02CE231E0F9013197F1F70197D9F747
:1045D00013C00E948A2010C0112371F483E790E079
:1045E000602F0E94E023EC019091DB03892F87501C
:1045F000823008F04CCFC3CEDF91CF911F910F9145
:10460000FF90EF9008950E94E91C982F8091D703A6
:1046100080FD18C08091D8039817A1F0973261F4FB
:104620008091D403882341F41092D6031092D503CD
:1046300081E08093D40304C01092D7031092D40376
:104640009093D8038091D70380FF0FC081FD0DC0E8
:104650000E940C18882349F08091D70383608093CF
:10466000D7030E94971F0E9420218091D70388239F
:10467000C9F48091D4038130A9F48091D50390913D
:10468000D60301969093D6038093D50320917E00A4
:1046900030917F00281739072CF40E94781E82E0A1
:1046A0008093D4038091D70381FF3AC08091D103D6
:1046B0008823E9F00E9411258823C9F40E94992CCF
:1046C0008823A9F48091DC038E3019F40E942E21F6
:1046D0000CC08D3019F40E94EC2007C08C3019F406
:1046E0000E940B2102C01092D1031092DC03809132
:1046F000CF038823A9F08091CD039091CE0301963A
:104700009093CE038093CD03895E93404CF081E07B
:104710008093D00389E26FEF4FEF20E00E944E219B
:1047200008950E948B25882319F01092D9030895CB
:104730008091D903813021F40E94781E1092D90310
:10474000089584EC99E00E94892C90937F008093D7
:104750007E0081E08093EB031092E903089528EB3B
:104760003BE003C0F9013197F1F70197D9F70895BC
:104770001F93162F0E94A53090E002C09595879553
:104780001A95E2F7809581701F9108950F931F93FA
:10479000162F042F0E94A53021E030E002C0220F26
:1047A000331F1A95E2F7622F60956823002309F4FE
:1047B000622B87E090E00E94CE301F910F91089508
:1047C000CF93DF93EC01DC010D900020E9F7119706
:1047D000A81BB90B70E0AD010E949E2F009719F441
:1047E000EFEFFFEF03C0FC01EC1BFD0BCF01DF91EE
:1047F000CF9108959B01FC0101900020E9F73197CA
:10480000E81BF90B6F5F7F4F680F791FE21BF30BFB
:10481000820F931FAF010E94B42F0895FF920F9350
:104820001F93F42E9B01DC010D900020E9F78C0111
:10483000060F171FA81BB90BA61BB70B2F5F3F4F07
:10484000820F931FB801AD010E94B42FF801F082CE
:104850001F910F91FF900895462FDC010D900020CD
:10486000E9F71197A81BB90BBD010E940E2408950A
:10487000282F809121049091220401966CE271E02E
:104880000E940C2FFC0190932204809321048091BC
:104890001F04909120048E179F0759F4009719F474
:1048A0008BE291E001C00197909322048093210450
:1048B0000895EC5DFB4F2083089520911F043091F3
:1048C000200480912104909122042817390711F4C3
:1048D00080E00895C90101966CE271E00E940C2FFE
:1048E000FC019093200480931F04EC5DFB4F8081BA
:1048F000089580912304089510922304089540E0C0
:1049000020911F0430912004809121049091220471
:104910002817390709F441E0842F0895982F81560C
:104920008A3118F4292F2D5510C0892F81548A31CE
:1049300020F4292F2D5332E009C0892F815389306B
:1049400010F020E002C0292F235130E0892F992751
:1049500087FD9095A92FB92FFC01B097EF35F10590
:1049600008F048C0E65DFF4FEE0FFF1F0590F49181
:10497000E02D09942EE141C02FE13FC020E23DC06F
:1049800021E23BC022E239C023E237C024E235C035
:1049900025E233C026E231C027E22FC02CE22EC030
:1049A0002DE22CC02DE229C02EE228C02EE225C027
:1049B0002FE224C02FE221C020E320C020E31DC04D
:1049C00021E31CC021E319C023E318C023E315C071
:1049D00024E314C024E311C025E310C025E30DC077
:1049E00026E30CC026E309C027E308C027E305C07F
:1049F00028E304C0222311F428E332E0832F922F0E
:104A0000089527E2FBCF0F931F930CEE13E090E085
:104A1000B8014AE050E00E94C62FC8011F910F91D3
:104A2000089520911F0430912004809121049091D9
:104A300022042817390719F081E090E008950E94B8
:104A40002F19089520911F04309120048091210492
:104A5000909122042817390739F480E3EFEEF3E050
:104A6000DF011D928A95E9F70895109222041092B1
:104A700021041092200410921F048CE291E0E4E2E1
:104A8000F4E0DF019C011D9221503040E1F780E30A
:104A9000EFEEF3E0DF011D928A95E9F708950E9499
:104AA00035250E94321908950F931F93CF93DF93FA
:104AB0000E945D24082F182F1D5B1C3058F40E94A3
:104AC0004F25812F0E94921981E08093230482E078
:104AD00000E01BC0CFEED3E0882331F480E3FE0179
:104AE00011928A95E9F70AC0CE01602F0E94E02357
:104AF000BC0197FD05C0CE010E94FA2382E005C0EB
:104B0000CE01602F0E942C2481E0902FDF91CF9165
:104B10001F910F9108958091500508950F931F9351
:104B2000082F162F80E890E00E949C1F812F0E9482
:104B300003250E949C1F82E890E00E949C1F802F0A
:104B40000E9403250E949C1F84E890E00E949C1F05
:104B50001F910F910895809350050E943E0908957A
:104B60000E9403230E947F1B0E9480190E94D0266E
:104B70000E94C91C0E94340D089580915205089529
:104B80008091580508956623C9F0843F51F48091BF
:104B90005605823011F483E001C081E08093560510
:104BA0000895833F59F480915705823021F483E0C2
:104BB00080935705089581E0809357050895982FB5
:104BC00080915605823059F080915705823029F442
:104BD0009A3629F080E09E3619F081E0089580E051
:104BE0000895FC0180818130A1F482E0808382E31A
:104BF00090E00E94D80C84EF91E02CE231E0F901C2
:104C00003197F1F70197D9F784E690E00E94D80C2C
:104C10000895833029F4108284E690E00E94D80C35
:104C200008950F931F93182F022F0E94430A812F7C
:104C30000E94A61D882309F0AFC0812F602F0E941B
:104C4000241C812F0E94091C182F0E94A61D882356
:104C500009F0A2C0002309F492C01C3F59F0173F8D
:104C600049F080915105882309F450C01A3209F0A7
:104C70004DC014C080915205882331F41C3F41F08F
:104C800083E0809352050CC01C3F21F4823031F048
:104C900082E0F7CF173F11F4833091F7109252055D
:104CA000809158058823C1F480915205882319F416
:104CB00084E690E00FC084E690E00E94D80C80E289
:104CC00093E02CE231E0F9013197F1F70197D9F740
:104CD00086E490E00E94D80C80915805813039F428
:104CE00060E080915205811161E081E008C082306E
:104CF00041F460E080915205811161E084E00E94FE
:104D00002E0680E01A3209F048C042C08091530557
:104D1000882361F0812F0E94281E882339F0195CB6
:104D200010938C0081E08093540536C0193221F431
:104D300081E08093510531C0153F71F48091550594
:104D400091E0892780935505882319F40E943C0A35
:104D500023C00E94330920C0123F59F40E94371E1D
:104D6000882319F00E94B01E17C081E0809353057C
:104D700013C0812F609151050E947B0B0EC01C3F18
:104D800059F0193219F41092510502C0123F11F076
:104D900081E003C01092530580E01F910F910895A8
:104DA0000E940918882341F086E595E00E94F125CC
:104DB00087E595E00E94F1250E940C18882379F080
:104DC00080915405882359F01092540580918C00ED
:104DD0008F3F29F00E94541E8FEF80938C0008951E
:104DE00089EA94E00E943D1F8AE793E00E943D1FFC
:104DF0008CE793E00E943D1F8AE793E00E943D1FED
:104E000080915805813019F483EB94E007C082301B
:104E100019F486EB94E002C081E893E00E943D1F04
:104E200008951F93182F1150133050F587E00E94FA
:104E3000041E10935805113041F487E090E00E9461
:104E4000A530682F6B7E606110C0123041F487E09E
:104E500090E00E94A530682F6B7E646006C087E0FA
:104E600090E00E94A530682F646187E090E00E9486
:104E7000CE300E943E090E94F0260E944D1E0DC0B9
:104E8000843031F484E60E94041E0E941C1E05C07A
:104E9000863019F48EE60E94041E1F9108950E9428
:104EA000F02608950F931F930E94F0260E944D1E36
:104EB00081E00E9403250E949C1F0CE713E0C801BB
:104EC0000E943D1F81E893E00E943D1F0E944D1EFD
:104ED00082E00E9403250E949C1FC8010E943D1F82
:104EE00083EB94E00E943D1F0E944D1E83E00E94D0
:104EF00003250E949C1FC8010E943D1F86EB94E081
:104F00000E943D1F0E944D1E84E00E9403250E94C6
:104F10009C1FC8010E943D1F8CE893E00E943D1F2A
:104F20000E944D1E86E00E9403250E949C1FC8011E
:104F30000E943D1F81E993E00E943D1F0E944D1E8B
:104F40001F910F91089587E090E00E94A530482FAF
:104F50008695869590E09C012170307080FD07C099
:104F6000842F82958F7080FF0DC081E008C02223BE
:104F700049F0842F82958F7080FD04C082E0809379
:104F8000580502C01092580586E890E00E94F61D70
:104F9000089580915A05089540915A0581E0482767
:104FA00040935A0587E090E063E00E94C62308958D
:104FB00087E090E063E00E94B82380935A058DE873
:104FC00090E00E94F61D08951F93182F8932B9F4BE
:104FD00080915A05882399F0662351F00E94E91CBC
:104FE000823011F0803259F481E08093590506C077
:104FF00080915905882319F01092590515E3812FE6
:105000001F91089589EB94E00E943D1F8AE793E089
:105010000E943D1F8CE793E00E943D1F8AE793E0CA
:105020000E943D1F80915A05882319F08EE793E076
:1050300002C081E893E00E943D1F0895813051F441
:1050400087E00E94041E0E94CC270E9402280E9432
:105050004D1E0895833031F484E60E94041E0E94A0
:105060001C1E0895863019F48EE60E94041E0895D1
:105070000E94022808950F931F930E9402280E9405
:105080004D1E81E00E9403250E949C1F0CE713E047
:10509000C8010E943D1F85E893E00E94851F83E0C0
:1050A0000E9403250E949C1FC8010E943D1F8CE89E
:1050B00093E00E94851F86E00E9403250E949C1FAA
:1050C000C8010E943D1F81E993E00E94851F1F9146
:1050D0000F91089580915B05089540915B0581E0F3
:1050E000482740935B0587E090E060E00E94C6237C
:1050F000089587E090E060E00E94B82380935B050C
:1051000083E990E00E94F61D089582EC94E00E94ED
:105110003D1F8AE793E00E943D1F8CE793E00E94C9
:105120003D1F8AE793E00E943D1F80915B05882325
:1051300019F08EE793E002C081E893E00E943D1FE2
:105140000895813051F487E00E94041E0E946D286A
:105150000E9485280E944D1E0895833031F484E614
:105160000E94041E0E941C1E0895863019F48EE6CB
:105170000E94041E08950E94852808950F931F938E
:105180000E9485280E944D1E81E00E9403250E94F6
:105190009C1F0CE713E0C8010E943D1F85E893E0C7
:1051A0000E94851F83E00E9403250E949C1FC80166
:1051B0000E943D1F8CE893E00E94851F86E00E94BC
:1051C00003250E949C1FC8010E943D1F81E993E0B6
:1051D0000E94851F1F910F91089581E080937305B0
:1051E000089581E0809360051092610580935C05CD
:1051F000089580915D05811181E008950F931F93BB
:10520000162F0E94FE1B082F81508C3B08F059C0BE
:1052100080578A3108F455C081E080935D05802F66
:105220008756112341F1883038F410915E05802FA4
:105230000E94B51D182B28C080915F05863008F0AC
:1052400040C0802F8D58823128F4E02FF0E0E758DD
:10525000FD4F04918AE695E0602F0E94E0238F5F66
:105260009F4F79F58AE695E0602F0E942C2480916B
:105270005F058F5F24C0883050F410915E05802F49
:105280000E94B51D8095182310935E051AC0802FCB
:105290008D58823128F4E02FF0E0E758FD4F04915B
:1052A0008AE695E0602F0E94E023BC0197FD09C0CB
:1052B0008AE695E00E94FA2380915F0581508093F1
:1052C0005F051F910F9108950F931F93182F082FBB
:1052D00001576623E9F061E00E94FE280A3160F57B
:1052E00021E020936205E12FF0E0EE0FFF1FE05177
:1052F000FE4F8591949190936405809363050330EC
:10530000D8F420936505909367058093660514C0D3
:1053100060E00E94FE280A3178F481E08093620503
:105320001092640510926305033030F48093650594
:10533000109267051092660581E01F910F91089504
:105340002F923F924F925F926F927F928F929F9295
:10535000AF92BF92CF92DF92EF92FF920F931F9383
:10536000DF93CF9300D00F92CDB7DEB782B3837FA8
:1053700082BB81B3837F81BB0E942C2B8B9A20E060
:1053800048EB5BE0CA010197F1F72150D9F78B9800
:1053900089E990E00E94B5198BE990E00E94942C75
:1053A00086E0EAE6F5E0DF011D928A95E9F71092C2
:1053B0005F0510925E051092640510926305789463
:1053C000EE24FF24DD2463E0962E54E0852E1E019A
:1053D0000894211C311C42E8A42E45E0B42E38E08C
:1053E000C32E22E0422E512C4A0C5B1C9AE6692EF9
:1053F00095E0792E80919F00813061F58091730551
:10540000882341F5809171059091720501969093E2
:105410007205809371050197895B9B40DCF01092C7
:105420009F008BB78F778BBF0F900F900F90CF910E
:10543000DF911F910F91FF90EF90DF90CF90BF9081
:10544000AF909F908F907F906F905F904F903F9024
:105450002F9008958091F505882349F01092F50565
:1054600010925C050E94E71DEE24FF2409C0809184
:105470005C05882339F0E1E0E093F5050E94E71D23
:10548000DD2419C0DD20B9F487010F5F1F4FF1E162
:10549000EF16F7E2FF0674F00E94E91C882351F42E
:1054A0000E94DF1C882331F40E94BF1D7801DD2497
:1054B000D39401C078010E943D2B8091E60584FFC2
:1054C00076C080916205882331F480916505882338
:1054D00011F40E94351B0E94B02580915D05882340
:1054E00009F441C080917305882309F483CFDD203E
:1054F00001F1F89422B331B3929A939881B38C60FE
:1055000081BB88EE93E0ECE2F1E03197F1F701978F
:10551000D1F782B3882582BB82B38C2582BB88E217
:1055200093E20197F1F722BB31BB789410925D05AD
:1055300061CFD501EC2D1D92EA95E9F780915E05CA
:10554000809382051092830540915F05C201B301EB
:1055500050E00E94AB2F82E895E068E00E947E2C2C
:1055600010925D0524C0809160058130A1F4F2E0C5
:10557000F0936005D501EC2D1D92EA95E9F782E8DC
:1055800095E068E00E947E2C0E94FE1880914B01FD
:10559000882369F00AC080916105823041F49092BD
:1055A000610580914B01882311F40E949123809121
:1055B000120684FF22C080916205882369F08091E1
:1055C00063059091640599829B838A83C10163E09E
:1055D0000E94792C1092620580916505882369F0FC
:1055E000809166059091670589829B838A83C101BA
:1055F00063E00E94792C10926505809160058230ED
:1056000009F0F8CE80916805909169059C012F5FA3
:105610003F4F3093690520936805883C910519F444
:105620000E94A72DE7CE293C31050CF4E3CE89EC8E
:1056300090E0909369058093680590926005DACEBA
:105640000E942F070E943E0980916105882319F46A
:1056500082E080936105089585B7886085BF8BB728
:1056600080688BBF8BE48093E705809313068AE5FF
:105670008093E6058093120608951F93CF93DF93DE
:105680006091F805635067FDB8C08091F405CCE0E7
:10569000D0E0C81BD109C450DA4F8091F3058D3298
:1056A00009F098C0683009F0A6C083EC8093DB0550
:1056B0008AE580939D00109270058881807629F09C
:1056C000CE010E94C810282F72C09A811092E40562
:1056D0008981882321F41092E50522E061C085309C
:1056E00019F49093F9055BC0863009F042C08B81B4
:1056F000813031F489B78B7F89BF8CEF94E01DC076
:10570000823019F18330F9F48A81882341F48AECDC
:1057100094E09093F7058093F60524E026C081304D
:1057200041F48EEC94E09093F7058093F6052CE11C
:105730001CC08230C9F48AEE94E09093F705809300
:10574000F60522E112C0813229F4CE010E945510E3
:10575000282F0BC0823241F4CE010E945510282F11
:1057600089B7846089BF01C020E080E48093700520
:105770001EC0883021F421E08BEF95E013C0893002
:1057800019F49093FB050BC08A3011F421E008C096
:105790008B3029F48BE48093E7058093130620E097
:1057A00084EE95E09093F7058093F60509C02F3FAE
:1057B00039F4888187FD2E8180E88093700506C0CA
:1057C0008F81882319F48E81821708F0822F8093AD
:1057D0009E0011C08091700587FF0DC0CE010E9410
:1057E0008F108F3F21F48EE180939D0004C08823A9
:1057F00011F010929E001092F80580919D0084FF98
:1058000046C080919E008F3F09F441C0182F893017
:1058100008F018E0811B80939E008091DB0598E8DA
:1058200089278093DB05112321F12091F605309122
:10583000F7058091700586FF0AC0912FF901ACED44
:10584000B5E084918D9331969150D9F708C0912F8E
:10585000D901ECEDF5E08D9181939150E1F7C9010B
:1058600001961150810F911D1F5F9093F705809352
:10587000F6058CED95E0612F0E94C702612F6C5FE9
:105880006C3019F08FEF80939E0060939D0094E13F
:1058900080B38C7031F49150D9F71092F9051092C1
:1058A000F205DF91CF911F9108951F93CF93DF935E
:1058B000DC01162FEA01888184FF05C0898198E800
:1058C0008927898302C08AE58883AE014E5F5F4FD6
:1058D000212FFA018D91819321501216DCF3CA0118
:1058E000612F0E94C7021C5F1883DF91CF911F9127
:1058F000089542E156E00E94552C089546EE55E089
:105900000E94552C08958D98959A08958D9A959892
:1059100008959C0180919F00882311F0833011F439
:1059200035952795C9010895909375058093740561
:105930000895E0917405F09175050190F081E02DD6
:10594000099508951F93182F0E940D19112399F09E
:1059500010E0812F0E94EA041F5F1730D1F789B74A
:105960008E7F89BF89B78B7F89BF89B78F7B89BFBE
:105970008D98959A02C08D9A95981F9108959F923F
:10598000AF92BF92CF92DF92EF92FF920F931F934D
:10599000CF93DF930E940D190E94FE1884E18A952F
:1059A000F1F710E00E945118882319F41F5F143199
:1059B000C9F70E9412187C0100E0DD2431E0A32E1B
:1059C000B12C2AE0922E95E0C92EF7018081882320
:1059D00009F43FC0C0E0D0E095010C2E02C0220FB8
:1059E000331F0A94E2F7F7018081822371F180E08E
:1059F0006D2D4C2F0E943E1D182F8C2F6D2D0E9457
:105A0000B911882311F41B3221F481E00E94AB25E7
:105A10001CC0103119F40E94181E17C0183111F45F
:105A2000016013C0133111F402600FC01E3121F464
:105A300081E08093FB0109C01F3119F4C092FB0182
:105A400004C0103211F49092FB012196C830D105A8
:105A500019F6D3940894E11CF11CFFE0DF1609F05D
:105A6000B4CF0E9447180E941818002319F00F5F46
:105A700000939F0060919F00643021F48CE090E0DF
:105A80006FEF04C0643028F48CE090E00E94CE30C8
:105A900006C08CE090E00E94A53080939F008A9819
:105AA000929A20919F002430D0F080E090E082997B
:105AB00007C092FD09C08F5F863060F021E00AC008
:105AC000829B09C092FD02C080E004C08F5F8630D7
:105AD00008F020E090B3223050F720939F000E94FE
